:1000000083EF06F00000000000EF00F000000000A9
:0A0010000000000000000000F3D71C
:10001C000F0E0C6E470E0D6E0D2EFED70C2EFCD750
:06002C00000000001200BC
:06003200000000001200B6
:0A003800210E0D6E0D2EFED71200F2
:100042000B840BAE2CEF00F0010E036E026A016A04
:0A005200006A0A360232FF0E1200A7
:08005C000AAE029E000E120024
:100064000B820BAE3CEF00F0036802680168006885
:080074000A360232FF0E1200F1
:0E007C00026A016A006A086A036A000E120036
:10008A004FBE02D0839E01D0838E4FBC02D0839C88
:10009A0001D0838C4FBA02D0839A01D0838A4FB899
:1000AA0002D0839801D083882CB002D0848401D0F6
:1000BA0084948482B9DF84924FB602D0839E01D0A1
:1000CA00838E4FB402D0839C01D0838C4FB202D06E
:1000DA00839A01D0838A4FB002D0839801D0838853
:1000EA002CB002D0848401D0849484829DDF8492CF
:0C00FA002CA002D08EDF01D09ADF120093
:100106000B800BAE8FEF00F0026A0AAEFF0E026E96
:0C011600016E006E0A360232FF0E12006D
:100122000B6A0A6A096A00500402F4CF09F0F3CF9D
:1001320008F001500502F4CF0BF0F3CF0AF00050A3
:100142000502F3500926F4500A22E86A0B220150F4
:100152000402F3500926F4500A22E86A0B2208C06E
:1001620000F009C001F00AC002F00BC003F0120057
:100172000C6A0E6A0250D8A4D2EF00F001C002F05D
:1001820000C001F0006A0E860250D8A4D2EF00F03F
:1001920001C002F0016A0E960E880250D8B4E4EF54
:1001A20000F00E50035ED8A4D8A0E9EF00F0D8907A
:1001B20002BEEEEF00F0003601360236032ED9EF12
:1001C20000F0E9EF00F0010E0C6E57DFF1EF00F0E6
:1001D200020E0C6E35DFF1EF00F0040E0C6E3DDF07
:0201E200120009
:0C01E4000E0E0D6E0D2EFED70000120056
:1001F0004BC004F04CC005F004C002F005C003F091
:10020000044A052A4DC000F04EC001F04D4A4E2A66
:1002100000C0E9FF01C0EAFF02C0E1FF03C0E2FF46
:10022000EECFE6FF02C0E9FF03C0EAFFEE5201E0B5
:0C023000E3D74BC000F04CC001F01200FE
:10023C00086A096A000E07620364A3EF01F002501A
:10024C0006180A6E075003267E0ED8A034EF01F074
:10025C00035ED8B0A7EF01F038EF01F0035ED8A031
:10026C00ABEF01F0028E068E02C00EF001C00BF057
:10027C0000C00DF000500402F4CF0CF00150050248
:10028C00F4CF00F0F3CF08F00402F3500C26F45036
:10029C000822000E00220D500502F3500C26F450DB
:1002AC000822000E002202500402F3500826F450DB
:1002BC00002202500502016A000E0122F3500026B2
:1002CC00F45001220D500602F3500826F45000227F
:1002DC00026A000E012202220B500602F350002685
:1002EC00F4500122000E02220E500602F350012699
:1002FC00F450022202BE8BEF01F0083600360136B4
:10030C0002360306D8B4ABEF01F09EEF01F0D880B3
:10031C00800E08640030000E002201220222D8A0B8
:10032C009EEF01F0023201320032034AA7EF01F0D6
:10033C000AAE029E000EADEF01F0010E99DEADEF9C
:10034C0001F0020E89DEADEF01F0040E74DE120036
:10035C000D6A086A0050D8B4000C04180A6E0ABE64
:10036C000D1E0B6A04AE02D0041E042A00AE02D08D
:10037C00001E002A005004100A6E0ABE1FD0045042
:10038C00085E003600340836045008260036060E87
:10039C000C6E00340836045000B0085E00A008262D
:1003AC0000360C2EF6D700A008260BB015D00DAEDB
:1003BC00000C001E002A081E082A000C04AE09D0EE
:1003CC0000BE04D00050086E006AF1D7006A002A03
:1003DC00000C001E0B2AD3D7082A0450085CD8A4A2
:0E03EC00E6D7086A002A00AEE2D7FF0C120026
:0C03FA002C904BC04FF044DE2C80120011
:100406000A6A0350D8A40A800750D8A40A820A5060
:10041600D8B466EF02F0030AD8B41FEF02F00AB0B0
:100426001AEF02F006AE64EF02F062EF02F002AEDF
:1004360062EF02F064EF02F00250800B0A6E029E39
:100446000650800B069E0A18D8B430EF02F00A5008
:10045600D8B462EF02F064EF02F00750035CD8B440
:100466003AEF02F0D8A056EF02F05CEF02F0065029
:10047600025CD8B444EF02F0D8A056EF02F05CEF6D
:1004860002F00550015CD8B44EEF02F0D8A056EF4A
:1004960002F05CEF02F00450005CD8B466EF02F0A4
:1004A600D8B05CEF02F00A52D8B464EF02F062EF03
:1004B60002F00A52D8B462EF02F064EF02F0D8807C
:0E04C6001200D8901200D880D88412001200C4
:1004D4000900F5CFE6FF0006FBE10106F9E1120091
:1004E400FF0E2D6EFF0E2E6EFF0E2F6EFF0E306E62
:1004F400C26A291C006E0050C116070EC012C08EBD
:04050400C28012009F
:10050800C26A291C006E0050C116070EC012C08EA8
:100518003DC000F000360090003600900050C21236
:10052800C2805CDEC282C2A201D0FDD7C4CF01F076
:0E053800006AC3500012000E0112C2901200A1
:10054600969296949598959A959C959E8492849465
:10055600839E839C839A83985EDD5DDD5CDD838A62
:100566008388848263DD849256DD84825FDD849293
:1005760052DD84825BDD84924EDD8398848256DD73
:10058600849249DD848252DD8492839A838E8482AA
:100596004DDD849240DD839E8388848247DD84928C
:1005A6008398848243DD849236DD84823FDD8492A3
:1005B600838884823BDD84922EDD8398848236DDB7
:1005C6008492838E838C838A838884822FDD8492AF
:0605D60022DD2C80120062
:0A05DC009494CA840C0EBD121200A4
:0805E600BB6ABA98BA9A120030
:0A05EE009492CA840C0EBA12120097
:0805F800BE6ABD98BD9A120015
:10060000CB50010F006E016A000E01223DC004F0C4
:10061000000E056E86DD060E026E00C004F001C0FD
:1006200005F0025005E005320432059EFF0FFAD7AF
:10063000040E016E04C000F0015004E0003600908A
:10064000FF0FFBD7300E0014036E04C000F005C08E
:1006500001F001320032019E01320032019E00C0E1
:0C066000BEFF0F0EBD160350BD121200AD
:10066C000B6A0350D8B47CEF03F002500A6E028E72
:10067C008E0E035E03AE80EF03F0036C080E035C7A
:10068C00D8A05BEF03F0036E013602C001F0026AE2
:10069C00080E035CD8A05BEF03F0036E0136016A11
:1006AC000350D8A4D89065EF03F00350D8B465EF8D
:1006BC0003F0D89002320132032E5FEF03F00BBC33
:1006CC0001A072EF03F0D8A072EF03F0012AD8B4A6
:1006DC00022A02BE8FEF03F00AAE94EF03F0021E63
:1006EC00011E012AD8B4022A94EF03F0026A016AAF
:1006FC0094EF03F00B800BAE98EF03F0026A0AAE96
:10070C0098EF03F0FF0E026E016E0A36023298EF7C
:10071C0003F0010E0C6EF1DC9AEF03F0000E0C6E80
:10072C009AEF03F0FF0E0C6E0150006E0250016E3A
:02073C001200A9
:10073E00496A4A6A3DC045F03EC046F03FC047F0A8
:10074E0040C048F04850FF0A08E14750FF0A05E153
:10075E004650FF0A02E14550FF0A0CE141C04BF042
:10076E0042C04CF0250E4D6E000E4E6E3ADD030E5D
:10077E00006EE9D1010E436E47AE0ED0800E4718C3
:10078E00006E00C047F0432A41C0E1FF42C0E2FFC5
:10079E002D0EE66E414A422A000E006E481808E100
:1007AE000050471805E10050461802E14550000A76
:1007BE000BE141C04BF042C04CF02A0E4D6E000EC4
:1007CE004E6E0FDD006ABFD14850FF0A08E1475058
:1007DE00000A05E14650000A02E14550000A0CE10C
:1007EE0041C04BF042C04CF0150E4D6E000E4E6ED9
:1007FE00F8DC43C000F0A7D1000E046E000E056EAB
:10080E00000E066E7F0E076E45C000F046C001F06A
:10081E0047C002F048C003F0EFDD010ED8B0000E65
:10082E00006E00521BE045C000F046C001F047C00C
:10083E0002F048C003F0000E046E000E056E200E8E
:10084E00066E820E076EF3DC00C045F001C046F066
:10085E0002C047F003C048F04A06CED7000E046E21
:10086E00000E056E200E066E820E076E45C000F05D
:10087E0046C001F047C002F048C003F0BDDD000ED7
:10088E00D8B0010E006E00521BE045C000F046C00D
:10089E0001F047C002F048C003F0CD0E046ECC0E3E
:1008AE00056E4C0E066E7B0E076EC1DC00C045F069
:1008BE0001C046F002C047F003C048F04A2ACED726
:1008CE00FF0E4514086EFF0E4614096E7F0E471478
:1008DE000A6E000E48140B6E08C004F009C005F035
:1008EE000AC006F00BC007F0043604900536063633
:1008FE000736000E4514006E000E4614016E000EF3
:10090E004714026EFF0E4814036E00C045F001C07E
:10091E0046F002C047F003C048F004504510006E88
:10092E0005504610016E06504710026E07504810D3
:10093E00036E00C045F001C046F002C047F003C090
:10094E0048F07F0E485C006E00C044F0010E486E09
:10095E0000C004F045C000F046C001F047C002F0F0
:10096E0048C003F0045007E000360090013602360E
:10097E000336FF0FF8D700C045F001C046F002C0A5
:10098E0047F003C048F041C0E1FF42C0E2FF4850CB
:10099E00300FE66E414A422A800E4A18006E800ED3
:1009AE00010A005C08E3800E060A006E800E4A18EB
:1009BE00005C01E30AD041C0E1FF42C0E2FF2E0E0F
:1009CE00E66E414A422A010E496E060E446E4450AE
:1009DE00000A54E0486A45C000F046C001F047C026
:1009EE0002F048C003F0003600900136023603369E
:1009FE00003600900136023603364550002646502A
:100A0E000122475002224850032200C045F001C087
:100A1E0046F002C047F003C048F045C000F046C0A3
:100A2E0001F047C002F048C003F0003600900136D6
:100A3E000236033600C045F001C046F002C047F052
:100A4E0003C048F041C0E1FF42C0E2FF4850300F02
:100A5E00E66E414A422A4950000A0EE14A064A50C1
:100A6E00000A0AE141C0E1FF42C0E2FF2E0EE66E2F
:100A7E00414A422A010E496E4406A9D7FF0E41246F
:100A8E00E96EFF0E4220EA6EEE50300A05E1010ECD
:100A9E00415E000E425AF2D7FF0E4124E96EFF0E60
:100AAE004220EA6EEE502E0A04E1010E415E000E67
:100ABE00425A4A50000A41E041C0E1FF42C0E2FF03
:100ACE00650EE66E414A422A800E4A18006E800E6E
:100ADE00000A005C0BE241C0E1FF42C0E2FF2D0EB6
:100AEE00E66E414A422A4A5000084A6E4AC044F015
:100AFE00800E090A006E800E4A18005C0EE20A0E85
:100B0E00046E44C000F023DC41C0E1FF42C0E2FFAE
:100B1E000050300FE66E414A422A0A0E046E44C05F
:100B2E0000F015DC08C000F041C0E1FF42C0E2FF5A
:100B3E000050300FE66E414A422A41C0E1FF42C0EA
:080B4E00E2FFE66A006A1200F2
:100B5600CB50010F006E016A000E01223DC004F069
:100B6600000E056E91EC00F0060E026E00C004F059
:100B760001C005F0025005E005320432059EFF0F64
:100B8600FAD7040E016E04C000F0015004E00036EE
:100B96000090FF0FFBD7300E0014036E04C000F068
:100BA60005C001F001320032019E01320032019E81
:0E0BB60000C0BBFF0F0EBA160350BA12120099
:100BC4000050086E0150006E016A026A036A0B6AE3
:100BD4000C6A960E036E0A6A00C001F008C000F0A9
:0A0BE400086A026AB9EC00F0120082
:100BEE003F6A3F503D24E96E000E3E20EA6EEE5203
:100BFE000CE03F503D24E96E000E3E20EA6EEECF33
:0C0C0E004BF0FDEC01F03F2AECD7120087
:100C1A003F6A406A3DC003F03EC004F03DC005F0A3
:100C2A003EC006F003C0E9FF04C0EAFFEE50200A06
:100C3A0004E13F50401001E110D0010E3F6E000E5A
:100C4A00406E03C0E9FF04C0EAFF05C0E1FF06C029
:100C5A00E2FFEECFE6FF054A062A03C001F004C010
:100C6A0002F0034A042A01C0E9FF02C0EAFFEE507B
:0E0C7A00000AD8E13DC000F03EC001F01200BB
:100C88000FD0800E3D6E19D0C00E3D6E16D0940E5A
:100C98003D6E13D0D40E3D6E10D0800E3D6E0DD03B
:100CA8003D50010AEEE03D50020AEEE03D50030AD5
:100CB800EEE03D50040AEEE0F0D73E04006E3D50F1
:100CC800002600C03DF000C04FF045EC00F02C902D
:100CD800416A41503F24E96E000E4020EA6EEE5210
:100CE8000CE041503F24E96E000E4020EA6EEECF42
:0E0CF8004BF0FDEC01F0412AECD72C801200ED
:100D06004AEC07F0396A3A6A3B6A3C6A9492936AFB
:100D1600FF0E806EFF0E926E9280010EC26ECE0E98
:100D2600C16EBE0EC06E070EB46ECA80CA927C0E2D
:100D3600CB6E5FDCCA80CA927C0ECB6E51DC4BDC7C
:100D460053DC72EC02F0A3EC02F00C0E4F6E45EC95
:100D560000F0010E4F6E45EC00F03D6A84EC02F0A7
:100D66002EDF00C039F001C03AF002C03BF003C0EC
:100D76003CF08F0E046EC20E056E750E066E7C0E6E
:100D8600076E1EEC01F06FDC00C03DF036DC000E95
:100D9600046EC00E056E7F0E066E880E076E39C095
:100DA60000F03AC001F03BC002F03CC003F003EC97
:100DB60002F0000ED8B0010E006E005206E0FF0EE3
:100DC600816EFF0E3D6EC4DE03D0816A3D6AC0DED1
:100DD60039C000F03AC001F03BC002F03CC003F05D
:100DE6000A0E046E280E056E200E066E770E076E2E
:100DF6001EEC01F000C039F001C03AF002C03BF031
:100E060003C03CF000C03DF001C03EF002C03FF020
:100E160003C040F0310E416E000E426E8DDC310E85
:100E26003D6E000E3E6EF6DE010E4F6E45EC00F096
:100E3600010E3D6E010E3E6E190E3F6E000E406EA7
:100E460020DF020E3D6E010E3E6E310E3F6E000E2D
:100E5600406E17DF220E3D6E000E3E6EC5DE820E20
:100E66000C6EDD0E0D6E0D2EFED70C2EFCD700007F
:060E7600000073D7FFD756
:100E940010EE15F0170E006E010E016E7C0EF66E4C
:0E0EA4000E0EF76E000EF86E6AEC02F01200F1
:040E7C00494E460095
:090E8000566F6C746167653A005D
:030E8900205600F0
:040E8C004E614E0065
:010E90003031
:020E910030002F
:020000040030CA
:0D000100021F1EFF8381FF0FC00FE00F40A4
:00000001FF
