:100000009DEF00F00000000000EF00F00000000095
:0A0010000000000000000000F3D71C
:10001C000134083609360450085E0550D8A0053C5A
:10002C00095E003601360F0E0C6E013408360936A7
:10003C00045000A006D0085E0550D8A0053C095E0F
:10004C0005D008260550D8B0053C092600360136E7
:10005C000C2EEBD700B006D0045008260550D8B0B3
:08006C00053C0926000012000A
:100074000450000A08E10550000A05E1FF0E006E75
:100084007F0E016E57D00D6A096A086A015000108C
:10009400D8B4000C015005180A6E0ABE0D1E0B6A76
:1000A40005AE05D0041E051E042AD8B4052A01AEE7
:1000B40005D0001E011E002AD8B4012A01500510E3
:1000C4000A6E0ABE10D0A8DF0BB020D00DAE000C13
:1000D400001E011E002AD8B4012A081E091E082A7F
:1000E400D8B4092A000C05AE0DD001BE07D00150CA
:1000F400096E0050086E016A006AE8D7016A006A56
:10010400002A000C011E001E0B2ADDD7082AD8B4D1
:10011400092A0450085CD8A4D9D70550095CD8A48E
:10012400D5D7096A086A002AD8B4012A01AECED705
:060134000000FF0C1200A8
:10013A00FF0E176EFF0E186E196A1A6A3F0E1B6EB3
:10014A00060E1C6E5B0E1D6E4F0E1E6E660E1F6E29
:10015A006D0E206E7D0E216E070E226E7F0E236EAF
:10016A006F0E246E0F0EC16E94929380939E926AC4
:10017A00806A956A836A81B01AD0000E1A1802E161
:10018A00000E191814E1010E196E000E1A6E174AA4
:10019A00182A800E270A006E800E1818005C02E1E9
:1001AA0017500F0804E20F0E176E270E186E81A063
:1001BA0008D0000E1A1802E1010E191802E1196A94
:1001CA001A6A17C015F018C016F00A0E046E000E4F
:1001DA00056E17C000F018C001F047DF08C000F034
:1001EA0009C001F01B0E0024E96E000E0120EA6E20
:1001FA00EECF83FF808A060E0C6E300E0D6E0D2E2A
:10020A00FED70C2EFCD70000809A0A0E046E000E50
:10021A00056E15C000F016C001F027DF00C015F00A
:10022A0001C016F00A0E046E000E056E1EDF08C02D
:10023A0000F009C001F01B0E0024E96E000E012037
:10024A00EA6EEECF83FF8088060E0C6E300E0D6EBE
:10025A000D2EFED70C2EFCD7000080980A0E046ED5
:10026A00000E056E15C000F016C001F0FEDE00C0DB
:10027A0015F001C016F00A0E046E000E056EF5DECA
:10028A0008C000F009C001F01B0E0024E96E000E40
:10029A000120EA6EEECF83FF8086060E0C6E300ECA
:1002AA000D6E0D2EFED70C2EFCD7000080960A0E7E
:1002BA00046E000E056E15C000F016C001F0D5DE02
:1002CA0000C015F001C016F00A0E046E000E056E8D
:1002DA00CCDE08C000F009C001F01B0E0024E96E54
:1002EA00000E0120EA6EEECF83FF8084060E0C6EAC
:1002FA00300E0D6E0D2EFED70C2EFCD7000080940A
:10030A00820E0C6EDD0E0D6E0D2EFED70C2EFCD756
:10031A00000000008292819E050E046E000E056E9A
:10032A0017C000F018C001F0A0DE08C000F009C034
:10033A0001F0000E011802E1000E0018D8B4828202
:10034A00020E046E000E056E17C000F018C001F010
:10035A008CDE08C000F009C001F0000E011802E1AD
:0C036A00000E0018D8B4818E06D7FFD713
:020000040030CA
:0D000100021F1EFF8381FF0FC00FE00F40A4
:00000001FF
